{
  "_format": "hh-sol-artifact-1",
  "contractName": "WeatherToken",
  "sourceName": "contracts/WeatherToken.sol",
  "abi": [
    {
      "inputs": [],
      "stateMutability": "nonpayable",
      "type": "constructor"
    },
    {
      "inputs": [],
      "name": "ECDSAInvalidSignature",
      "type": "error"
    },
    {
      "inputs": [
        {
          "internalType": "uint256",
          "name": "length",
          "type": "uint256"
        }
      ],
      "name": "ECDSAInvalidSignatureLength",
      "type": "error"
    },
    {
      "inputs": [
        {
          "internalType": "bytes32",
          "name": "s",
          "type": "bytes32"
        }
      ],
      "name": "ECDSAInvalidSignatureS",
      "type": "error"
    },
    {
      "inputs": [
        {
          "internalType": "address",
          "name": "spender",
          "type": "address"
        },
        {
          "internalType": "uint256",
          "name": "allowance",
          "type": "uint256"
        },
        {
          "internalType": "uint256",
          "name": "needed",
          "type": "uint256"
        }
      ],
      "name": "ERC20InsufficientAllowance",
      "type": "error"
    },
    {
      "inputs": [
        {
          "internalType": "address",
          "name": "sender",
          "type": "address"
        },
        {
          "internalType": "uint256",
          "name": "balance",
          "type": "uint256"
        },
        {
          "internalType": "uint256",
          "name": "needed",
          "type": "uint256"
        }
      ],
      "name": "ERC20InsufficientBalance",
      "type": "error"
    },
    {
      "inputs": [
        {
          "internalType": "address",
          "name": "approver",
          "type": "address"
        }
      ],
      "name": "ERC20InvalidApprover",
      "type": "error"
    },
    {
      "inputs": [
        {
          "internalType": "address",
          "name": "receiver",
          "type": "address"
        }
      ],
      "name": "ERC20InvalidReceiver",
      "type": "error"
    },
    {
      "inputs": [
        {
          "internalType": "address",
          "name": "sender",
          "type": "address"
        }
      ],
      "name": "ERC20InvalidSender",
      "type": "error"
    },
    {
      "inputs": [
        {
          "internalType": "address",
          "name": "spender",
          "type": "address"
        }
      ],
      "name": "ERC20InvalidSpender",
      "type": "error"
    },
    {
      "inputs": [
        {
          "internalType": "address",
          "name": "owner",
          "type": "address"
        }
      ],
      "name": "OwnableInvalidOwner",
      "type": "error"
    },
    {
      "inputs": [
        {
          "internalType": "address",
          "name": "account",
          "type": "address"
        }
      ],
      "name": "OwnableUnauthorizedAccount",
      "type": "error"
    },
    {
      "anonymous": false,
      "inputs": [
        {
          "indexed": true,
          "internalType": "address",
          "name": "owner",
          "type": "address"
        },
        {
          "indexed": true,
          "internalType": "address",
          "name": "spender",
          "type": "address"
        },
        {
          "indexed": false,
          "internalType": "uint256",
          "name": "value",
          "type": "uint256"
        }
      ],
      "name": "Approval",
      "type": "event"
    },
    {
      "anonymous": false,
      "inputs": [
        {
          "indexed": true,
          "internalType": "address",
          "name": "authorizer",
          "type": "address"
        },
        {
          "indexed": true,
          "internalType": "bytes32",
          "name": "nonce",
          "type": "bytes32"
        }
      ],
      "name": "AuthorizationCanceled",
      "type": "event"
    },
    {
      "anonymous": false,
      "inputs": [
        {
          "indexed": true,
          "internalType": "address",
          "name": "authorizer",
          "type": "address"
        },
        {
          "indexed": true,
          "internalType": "bytes32",
          "name": "nonce",
          "type": "bytes32"
        }
      ],
      "name": "AuthorizationUsed",
      "type": "event"
    },
    {
      "anonymous": false,
      "inputs": [
        {
          "indexed": true,
          "internalType": "address",
          "name": "previousOwner",
          "type": "address"
        },
        {
          "indexed": true,
          "internalType": "address",
          "name": "newOwner",
          "type": "address"
        }
      ],
      "name": "OwnershipTransferred",
      "type": "event"
    },
    {
      "anonymous": false,
      "inputs": [
        {
          "indexed": true,
          "internalType": "address",
          "name": "from",
          "type": "address"
        },
        {
          "indexed": true,
          "internalType": "address",
          "name": "to",
          "type": "address"
        },
        {
          "indexed": false,
          "internalType": "uint256",
          "name": "value",
          "type": "uint256"
        }
      ],
      "name": "Transfer",
      "type": "event"
    },
    {
      "inputs": [],
      "name": "WEATHER_API_PRICE",
      "outputs": [
        {
          "internalType": "uint256",
          "name": "",
          "type": "uint256"
        }
      ],
      "stateMutability": "view",
      "type": "function"
    },
    {
      "inputs": [
        {
          "internalType": "address",
          "name": "owner",
          "type": "address"
        },
        {
          "internalType": "address",
          "name": "spender",
          "type": "address"
        }
      ],
      "name": "allowance",
      "outputs": [
        {
          "internalType": "uint256",
          "name": "",
          "type": "uint256"
        }
      ],
      "stateMutability": "view",
      "type": "function"
    },
    {
      "inputs": [
        {
          "internalType": "address",
          "name": "spender",
          "type": "address"
        },
        {
          "internalType": "uint256",
          "name": "value",
          "type": "uint256"
        }
      ],
      "name": "approve",
      "outputs": [
        {
          "internalType": "bool",
          "name": "",
          "type": "bool"
        }
      ],
      "stateMutability": "nonpayable",
      "type": "function"
    },
    {
      "inputs": [
        {
          "internalType": "address",
          "name": "authorizer",
          "type": "address"
        },
        {
          "internalType": "bytes32",
          "name": "nonce",
          "type": "bytes32"
        }
      ],
      "name": "authorizationState",
      "outputs": [
        {
          "internalType": "bool",
          "name": "",
          "type": "bool"
        }
      ],
      "stateMutability": "view",
      "type": "function"
    },
    {
      "inputs": [
        {
          "internalType": "address",
          "name": "account",
          "type": "address"
        }
      ],
      "name": "balanceOf",
      "outputs": [
        {
          "internalType": "uint256",
          "name": "",
          "type": "uint256"
        }
      ],
      "stateMutability": "view",
      "type": "function"
    },
    {
      "inputs": [
        {
          "internalType": "address",
          "name": "authorizer",
          "type": "address"
        },
        {
          "internalType": "bytes32",
          "name": "nonce",
          "type": "bytes32"
        }
      ],
      "name": "cancelAuthorization",
      "outputs": [],
      "stateMutability": "nonpayable",
      "type": "function"
    },
    {
      "inputs": [],
      "name": "decimals",
      "outputs": [
        {
          "internalType": "uint8",
          "name": "",
          "type": "uint8"
        }
      ],
      "stateMutability": "view",
      "type": "function"
    },
    {
      "inputs": [],
      "name": "getWeatherApiPrice",
      "outputs": [
        {
          "internalType": "uint256",
          "name": "",
          "type": "uint256"
        }
      ],
      "stateMutability": "pure",
      "type": "function"
    },
    {
      "inputs": [
        {
          "internalType": "address",
          "name": "user",
          "type": "address"
        }
      ],
      "name": "hasWeatherApiAccess",
      "outputs": [
        {
          "internalType": "bool",
          "name": "",
          "type": "bool"
        }
      ],
      "stateMutability": "view",
      "type": "function"
    },
    {
      "inputs": [
        {
          "internalType": "address",
          "name": "to",
          "type": "address"
        },
        {
          "internalType": "uint256",
          "name": "amount",
          "type": "uint256"
        }
      ],
      "name": "mint",
      "outputs": [],
      "stateMutability": "nonpayable",
      "type": "function"
    },
    {
      "inputs": [],
      "name": "name",
      "outputs": [
        {
          "internalType": "string",
          "name": "",
          "type": "string"
        }
      ],
      "stateMutability": "view",
      "type": "function"
    },
    {
      "inputs": [],
      "name": "owner",
      "outputs": [
        {
          "internalType": "address",
          "name": "",
          "type": "address"
        }
      ],
      "stateMutability": "view",
      "type": "function"
    },
    {
      "inputs": [],
      "name": "renounceOwnership",
      "outputs": [],
      "stateMutability": "nonpayable",
      "type": "function"
    },
    {
      "inputs": [],
      "name": "symbol",
      "outputs": [
        {
          "internalType": "string",
          "name": "",
          "type": "string"
        }
      ],
      "stateMutability": "view",
      "type": "function"
    },
    {
      "inputs": [],
      "name": "totalSupply",
      "outputs": [
        {
          "internalType": "uint256",
          "name": "",
          "type": "uint256"
        }
      ],
      "stateMutability": "view",
      "type": "function"
    },
    {
      "inputs": [
        {
          "internalType": "address",
          "name": "to",
          "type": "address"
        },
        {
          "internalType": "uint256",
          "name": "value",
          "type": "uint256"
        }
      ],
      "name": "transfer",
      "outputs": [
        {
          "internalType": "bool",
          "name": "",
          "type": "bool"
        }
      ],
      "stateMutability": "nonpayable",
      "type": "function"
    },
    {
      "inputs": [
        {
          "internalType": "address",
          "name": "from",
          "type": "address"
        },
        {
          "internalType": "address",
          "name": "to",
          "type": "address"
        },
        {
          "internalType": "uint256",
          "name": "value",
          "type": "uint256"
        }
      ],
      "name": "transferFrom",
      "outputs": [
        {
          "internalType": "bool",
          "name": "",
          "type": "bool"
        }
      ],
      "stateMutability": "nonpayable",
      "type": "function"
    },
    {
      "inputs": [
        {
          "internalType": "address",
          "name": "newOwner",
          "type": "address"
        }
      ],
      "name": "transferOwnership",
      "outputs": [],
      "stateMutability": "nonpayable",
      "type": "function"
    },
    {
      "inputs": [
        {
          "internalType": "address",
          "name": "from",
          "type": "address"
        },
        {
          "internalType": "address",
          "name": "to",
          "type": "address"
        },
        {
          "internalType": "uint256",
          "name": "value",
          "type": "uint256"
        },
        {
          "internalType": "uint256",
          "name": "validAfter",
          "type": "uint256"
        },
        {
          "internalType": "uint256",
          "name": "validBefore",
          "type": "uint256"
        },
        {
          "internalType": "bytes32",
          "name": "nonce",
          "type": "bytes32"
        },
        {
          "internalType": "uint8",
          "name": "v",
          "type": "uint8"
        },
        {
          "internalType": "bytes32",
          "name": "r",
          "type": "bytes32"
        },
        {
          "internalType": "bytes32",
          "name": "s",
          "type": "bytes32"
        }
      ],
      "name": "transferWithAuthorization",
      "outputs": [],
      "stateMutability": "nonpayable",
      "type": "function"
    }
  ],
  "bytecode": "0x60806040523480156200001157600080fd5b50336040518060400160405280601481526020017f576561746865722041636365737320546f6b656e0000000000000000000000008152506040518060400160405280600381526020016215d05560ea1b815250816003908162000076919062000348565b50600462000085828262000348565b5050506001600160a01b038116620000b857604051631e4fbdf760e01b8152600060048201526024015b60405180910390fd5b620000c381620000e0565b50620000da3369d3c21bcecceda100000062000132565b6200043c565b600580546001600160a01b038381166001600160a01b0319831681179093556040519116919082907f8be0079c531659141344cd1fd0a4f28419497f9722a3daafe3b4186f6b6457e090600090a35050565b6001600160a01b0382166200015e5760405163ec442f0560e01b815260006004820152602401620000af565b6200016c6000838362000170565b5050565b6001600160a01b0383166200019f57806002600082825462000193919062000414565b90915550620002139050565b6001600160a01b03831660009081526020819052604090205481811015620001f45760405163391434e360e21b81526001600160a01b03851660048201526024810182905260448101839052606401620000af565b6001600160a01b03841660009081526020819052604090209082900390555b6001600160a01b038216620002315760028054829003905562000250565b6001600160a01b03821660009081526020819052604090208054820190555b816001600160a01b0316836001600160a01b03167fddf252ad1be2c89b69c2b068fc378daa952ba7f163c4a11628f55a4df523b3ef836040516200029691815260200190565b60405180910390a3505050565b634e487b7160e01b600052604160045260246000fd5b600181811c90821680620002ce57607f821691505b602082108103620002ef57634e487b7160e01b600052602260045260246000fd5b50919050565b601f8211156200034357600081815260208120601f850160051c810160208610156200031e5750805b601f850160051c820191505b818110156200033f578281556001016200032a565b5050505b505050565b81516001600160401b03811115620003645762000364620002a3565b6200037c81620003758454620002b9565b84620002f5565b602080601f831160018114620003b457600084156200039b5750858301515b600019600386901b1c1916600185901b1785556200033f565b600085815260208120601f198616915b82811015620003e557888601518255948401946001909101908401620003c4565b5085821015620004045787850151600019600388901b60f8161c191681555b5050505050600190811b01905550565b808201808211156200043657634e487b7160e01b600052601160045260246000fd5b92915050565b610f78806200044c6000396000f3fe608060405234801561001057600080fd5b50600436106101215760003560e01c8063715018a6116100ad578063dd62ed3e11610071578063dd62ed3e14610265578063e3ee160e1461029e578063e4e94023146102b1578063e94a0102146102c4578063f2fde38b146102fd57600080fd5b8063715018a6146102195780637172db24146102215780638da5cb5b1461022f57806395d89b411461024a578063a9059cbb1461025257600080fd5b8063313ce567116100f4578063313ce5671461018c57806340c10f191461019b57806342deb22c146101b05780636c074709146101e357806370a08231146101f057600080fd5b806306fdde0314610126578063095ea7b31461014457806318160ddd1461016757806323b872dd14610179575b600080fd5b61012e610310565b60405161013b9190610d24565b60405180910390f35b610157610152366004610d8e565b6103a2565b604051901515815260200161013b565b6002545b60405190815260200161013b565b610157610187366004610db8565b6103bc565b6040516012815260200161013b565b6101ae6101a9366004610d8e565b6103e0565b005b6101576101be366004610df4565b6001600160a01b0316600090815260208190526040902054662386f26fc10000111590565b662386f26fc1000061016b565b61016b6101fe366004610df4565b6001600160a01b031660009081526020819052604090205490565b6101ae6103f6565b61016b662386f26fc1000081565b6005546040516001600160a01b03909116815260200161013b565b61012e61040a565b610157610260366004610d8e565b610419565b61016b610273366004610e16565b6001600160a01b03918216600090815260016020908152604080832093909416825291909152205490565b6101ae6102ac366004610e49565b610427565b6101ae6102bf366004610d8e565b6106be565b6101576102d2366004610d8e565b6001600160a01b03919091166000908152600660209081526040808320938352929052205460ff1690565b6101ae61030b366004610df4565b61078c565b60606003805461031f90610ed1565b80601f016020809104026020016040519081016040528092919081815260200182805461034b90610ed1565b80156103985780601f1061036d57610100808354040283529160200191610398565b820191906000526020600020905b81548152906001019060200180831161037b57829003601f168201915b5050505050905090565b6000336103b08185856107ca565b60019150505b92915050565b6000336103ca8582856107dc565b6103d585858561085b565b506001949350505050565b6103e86108ba565b6103f282826108e7565b5050565b6103fe6108ba565b610408600061091d565b565b60606004805461031f90610ed1565b6000336103b081858561085b565b85421161047b5760405162461bcd60e51b815260206004820152601b60248201527f417574686f72697a6174696f6e206e6f74207965742076616c6964000000000060448201526064015b60405180910390fd5b8442106104c25760405162461bcd60e51b8152602060048201526015602482015274105d5d1a1bdc9a5e985d1a5bdb88195e1c1a5c9959605a1b6044820152606401610472565b6001600160a01b038916600090815260066020908152604080832087845290915290205460ff16156105365760405162461bcd60e51b815260206004820152601a60248201527f417574686f72697a6174696f6e20616c726561647920757365640000000000006044820152606401610472565b6040516bffffffffffffffffffffffff1960608b811b821660208401528a811b82166034840152604883018a9052606883018990526088830188905260a8830187905230901b1660c882015260009060dc0160408051601f198184030181529082905280516020918201207f19457468657265756d205369676e6564204d6573736167653a0a33320000000091830191909152603c820152605c0160408051601f198184030181529190528051602090910120905060006105f98286868661096f565b90508a6001600160a01b0316816001600160a01b0316146106505760405162461bcd60e51b8152602060048201526011602482015270496e76616c6964207369676e617475726560781b6044820152606401610472565b6001600160a01b038b1660008181526006602090815260408083208a8452909152808220805460ff19166001179055518892917f98de503528ee59b575ef0c0a2576a82497bfc029a5685b209e9ec333479b10a591a36106b18b8b8b61085b565b5050505050505050505050565b6001600160a01b038216600090815260066020908152604080832084845290915290205460ff16156107325760405162461bcd60e51b815260206004820152601a60248201527f417574686f72697a6174696f6e20616c726561647920757365640000000000006044820152606401610472565b6001600160a01b0382166000818152600660209081526040808320858452909152808220805460ff19166001179055518392917f1cdd46ff242716cdaa72d159d339a485b3438398348d68f09d7c8c0a59353d8191a35050565b6107946108ba565b6001600160a01b0381166107be57604051631e4fbdf760e01b815260006004820152602401610472565b6107c78161091d565b50565b6107d7838383600161099d565b505050565b6001600160a01b03838116600090815260016020908152604080832093861683529290522054600019811015610855578181101561084657604051637dc7a0d960e11b81526001600160a01b03841660048201526024810182905260448101839052606401610472565b6108558484848403600061099d565b50505050565b6001600160a01b03831661088557604051634b637e8f60e11b815260006004820152602401610472565b6001600160a01b0382166108af5760405163ec442f0560e01b815260006004820152602401610472565b6107d7838383610a72565b6005546001600160a01b031633146104085760405163118cdaa760e01b8152336004820152602401610472565b6001600160a01b0382166109115760405163ec442f0560e01b815260006004820152602401610472565b6103f260008383610a72565b600580546001600160a01b038381166001600160a01b0319831681179093556040519116919082907f8be0079c531659141344cd1fd0a4f28419497f9722a3daafe3b4186f6b6457e090600090a35050565b60008060008061098188888888610b9c565b9250925092506109918282610c6b565b50909695505050505050565b6001600160a01b0384166109c75760405163e602df0560e01b815260006004820152602401610472565b6001600160a01b0383166109f157604051634a1406b160e11b815260006004820152602401610472565b6001600160a01b038085166000908152600160209081526040808320938716835292905220829055801561085557826001600160a01b0316846001600160a01b03167f8c5be1e5ebec7d5bd14f71427d1e84f3dd0314c0f7b2291e5b200ac8c7c3b92584604051610a6491815260200190565b60405180910390a350505050565b6001600160a01b038316610a9d578060026000828254610a929190610f0b565b90915550610b0f9050565b6001600160a01b03831660009081526020819052604090205481811015610af05760405163391434e360e21b81526001600160a01b03851660048201526024810182905260448101839052606401610472565b6001600160a01b03841660009081526020819052604090209082900390555b6001600160a01b038216610b2b57600280548290039055610b4a565b6001600160a01b03821660009081526020819052604090208054820190555b816001600160a01b0316836001600160a01b03167fddf252ad1be2c89b69c2b068fc378daa952ba7f163c4a11628f55a4df523b3ef83604051610b8f91815260200190565b60405180910390a3505050565b600080807f7fffffffffffffffffffffffffffffff5d576e7357a4501ddfe92f46681b20a0841115610bd75750600091506003905082610c61565b604080516000808252602082018084528a905260ff891692820192909252606081018790526080810186905260019060a0016020604051602081039080840390855afa158015610c2b573d6000803e3d6000fd5b5050604051601f1901519150506001600160a01b038116610c5757506000925060019150829050610c61565b9250600091508190505b9450945094915050565b6000826003811115610c7f57610c7f610f2c565b03610c88575050565b6001826003811115610c9c57610c9c610f2c565b03610cba5760405163f645eedf60e01b815260040160405180910390fd5b6002826003811115610cce57610cce610f2c565b03610cef5760405163fce698f760e01b815260048101829052602401610472565b6003826003811115610d0357610d03610f2c565b036103f2576040516335e2f38360e21b815260048101829052602401610472565b600060208083528351808285015260005b81811015610d5157858101830151858201604001528201610d35565b506000604082860101526040601f19601f8301168501019250505092915050565b80356001600160a01b0381168114610d8957600080fd5b919050565b60008060408385031215610da157600080fd5b610daa83610d72565b946020939093013593505050565b600080600060608486031215610dcd57600080fd5b610dd684610d72565b9250610de460208501610d72565b9150604084013590509250925092565b600060208284031215610e0657600080fd5b610e0f82610d72565b9392505050565b60008060408385031215610e2957600080fd5b610e3283610d72565b9150610e4060208401610d72565b90509250929050565b60008060008060008060008060006101208a8c031215610e6857600080fd5b610e718a610d72565b9850610e7f60208b01610d72565b975060408a0135965060608a0135955060808a0135945060a08a0135935060c08a013560ff81168114610eb157600080fd5b8093505060e08a013591506101008a013590509295985092959850929598565b600181811c90821680610ee557607f821691505b602082108103610f0557634e487b7160e01b600052602260045260246000fd5b50919050565b808201808211156103b657634e487b7160e01b600052601160045260246000fd5b634e487b7160e01b600052602160045260246000fdfea2646970667358221220544326e0799791bb15d20233cc4ac53633c7c3a0f531b39ff815448f41396db564736f6c63430008140033",
  "linkReferences": {},
  "deployedLinkReferences": {}
}